:100000000C9462000C948A000C948A000C948A0070
:100010000C948A000C948A000C948A000C948A0038
:100020000C948A000C948A000C948A000C948A0028
:100030000C948A000C948A000C948A000C948A0018
:100040000C941E040C948A000C948E040C94680486
:100050000C948A000C948A000C948A000C948A00F8
:100060000C948A000C948A000000000024002700F1
:100070002A0000000000250028002B0000000000DE
:1000800023002600290004040404040404040202DA
:100090000202020203030303030301020408102007
:1000A0004080010204081020010204081020000012
:1000B0000008000201000003040700000000000027
:1000C0000000C00411241FBECFEFD8E0DEBFCDBFBB
:1000D00012E0A0E0B1E0EEEAFFE002C005900D9270
:1000E000AE31B107D9F723E0AEE1B2E001C01D9215
:1000F000AA33B207E1F710E0C2E6D0E004C02197CE
:10010000FE010E94CF07C136D107C9F70E944E05F4
:100110000C94D5070C94000096E0899FD00111241F
:10012000A553BD4F90967C936E935F9791E0919607
:100130009C939197E0913803F091390390913703A4
:10014000992339F0309751F0811108C08091E7026E
:100150000994309719F05C968C91FACF0895CF925C
:10016000DF92EF92FF920F931F9396E0899FF00129
:100170001124E553FD4F11A2278D30A12130310507
:1001800051F178F02230310509F451C023303105A6
:1001900009F452C01F910F91FF90EF90DF90CF9024
:1001A00008956623B9F361E070E00E948C002FB7D8
:1001B000F89480912A0290912B02A0912C02B09188
:1001C0002D022FBF8093230390932403A093250334
:1001D000B0932603DFCF9FB7F894C0902A02D09047
:1001E0002B02E0902C02F0902D029FBF0091230380
:1001F000109124032091250330912603C01AD10ABF
:10020000E20AF30A009135031091360330E020E052
:100210000C151D052E053F0550F462E070E01F919E
:100220000F91FF90EF90DF90CF900C948C006111B4
:10023000B1CF63E070E0F3CF70E060E0F0CF8330E7
:1002400081F028F4813099F08230A9F00895873048
:10025000A9F08830C9F08430B1F4809180008F7D9E
:1002600003C0809180008F7780938000089584B5CB
:100270008F7784BD089584B58F7DFBCF8091B000CA
:100280008F778093B00008958091B0008F7DF9CF73
:10029000CF93DF93282F30E0F901E255FF4F84918F
:1002A000F901E656FF4FD491F901EA57FF4FC49187
:1002B000CC23A1F081110E941F01EC2FF0E0EE0F82
:1002C000FF1FE458FF4FA591B491EC91ED2381E01D
:1002D00090E009F480E0DF91CF91089580E090E014
:1002E000FACF1F93CF93DF93282F30E0F901E25527
:1002F000FF4F8491F901E656FF4FD491F901EA5777
:10030000FF4FC491CC23A9F0162F81110E941F0129
:10031000EC2FF0E0EE0FFF1FEE58FF4FA591B491C8
:100320008FB7F894EC91111108C0D095DE23DC93BF
:100330008FBFDF91CF911F910895DE2BF8CFCF9320
:10034000DF9390E0FC01E656FF4F24918A579F4FC0
:10035000FC0184918823C9F090E0880F991FFC016B
:10036000E859FF4FA591B491FC01EE58FF4FC5919C
:10037000D49161110DC09FB7F8948C912095822380
:100380008C938881282328839FBFDF91CF91089584
:10039000623051F49FB7F8943C91822F809583236B
:1003A0008C93E8812E2BEFCF8FB7F894EC912E2B06
:1003B0002C938FBFEACF862F642F0C949F01862F3A
:1003C000642F0C947101862F0C944801AF92BF9258
:1003D000CF92DF92EF92FF920F931F93CF93DF9311
:1003E0006C017B018B01040F151FEB015E01AE1840
:1003F000BF08C017D10759F06991D601ED91FC9162
:100400000190F081E02DC6010995892B79F7C5018E
:10041000DF91CF911F910F91FF90EF90DF90CF90E0
:10042000BF90AF900895FC01538D448D252F30E08F
:10043000842F90E0821B930B541710F0CF960895F1
:1004400001970895FC01918D828D981761F0A28D1E
:10045000AE0FBF2FB11D5D968C91928D9F5F9F73E4
:10046000928F90E008958FEF9FEF0895FC01918D9A
:10047000828D981731F0828DE80FF11D858D90E007
:1004800008958FEF9FEF0895FC01918D228D892FA4
:1004900090E0805C9F4F821B91098F73992708958C
:1004A0008EE292E00E94440221E0892B09F420E0D0
:1004B000822F089580E090E0892B29F00E9450025D
:1004C00081110C9400000895FC01A48DA80FB92F90
:1004D000B11DA35ABF4F2C91848D90E001968F736C
:1004E0009927848FA689B7892C93A089B1898C918B
:1004F000837080648C93938D848D981306C00288DA
:10050000F389E02D80818F7D80830895EF92FF92A3
:100510000F931F93CF93DF93EC0181E0888F9B8D26
:100520008C8D98131AC0E889F989808185FF15C0E0
:100530009FB7F894EE89FF896083E889F989808103
:100540008370806480839FBF81E090E0DF91CF91D2
:100550001F910F91FF90EF900895F62E0B8D10E0F4
:100560000F5F1F4F0F731127E02E8C8D8E110CC063
:100570000FB607FCFACFE889F989808185FFF5CFAE
:10058000CE010E946402F1CFEB8DEC0FFD2FF11D27
:10059000E35AFF4FF0829FB7F8940B8FEA89FB89EB
:1005A00080818062CFCFCF93DF93EC01888D882349
:1005B000B9F0AA89BB89E889F9898C9185FD03C0C6
:1005C000808186FD0DC00FB607FCF7CF8C9185FFAB
:1005D000F2CF808185FFEDCFCE010E946402E9CF8A
:1005E000DF91CF910895EF92FF920F931F93CF93D6
:1005F000DF937C018B01D0E0C0E0F80180810E5FC9
:100600001F4FB7010C2E02C0759567950A94E2F74B
:1006100061700E9471012196C430D10571F7DF919C
:10062000CF911F910F91FF90EF900895FC010190E1
:100630000020E9F73197AF01481B590BBC018EE24E
:1006400092E00C94E601CF93DF930E941603EC0135
:1006500080E491E00E9416038C0F9D1FDF91CF91E3
:1006600008958F929F92AF92BF92CF92DF92EF92B6
:10067000FF920F931F93CF93DF93CDB7DEB7A19770
:100680000FB6F894DEBF0FBECDBF6C01990FEE0818
:10069000FF08F7FE47C06DE28EE292E00E948602FC
:1006A0008C0122273327A9012C193D094E095F0926
:1006B00019A2CE0181967C019AE0892E912CA12C61
:1006C000B12CCA01B901A50194010E94AD07605D7A
:1006D000F70162937F01211531054105510589F725
:1006E00090E080E0309719F0CF010E941603080FC8
:1006F000191F80E491E00E941603800F911FA196BC
:100700000FB6F894DEBF0FBECDBFDF91CF911F9122
:100710000F91FF90EF90DF90CF90BF90AF909F90A0
:100720008F900895A701960119A28E010F5D1F4FAA
:100730008AE0C82ED12CE12CF12CCA01B901A70105
:1007400096010E94AD07605DF80162938F0121154B
:1007500031054105510589F7309729F0CF010E94F5
:1007600016038C01C6CF10E000E0C3CFCF93C82F93
:1007700085E691E00E94230387E891E00E9416033A
:100780006C2F8EE292E00E94860280E491E00E944B
:10079000160385E991E00E94160380910001811102
:1007A00041C08DE491E00E94230386EA91E00E941B
:1007B000160380912202909123020E94310387EB5D
:1007C00091E00E94160380911F02909120020E94E6
:1007D000310388EC91E00E9416038091210281117F
:1007E00024C08AE591E00E94230389ED91E00E94F4
:1007F000160380911E0281111BC08AE591E00E94C0
:1008000023038AEE91E00E94160380912402811155
:1008100012C081E691E00E9423038CEF91E0CF911A
:100820000C94230383E491E0BECF88E591E0DBCF15
:1008300088E591E0E4CF8CE591E0EDCF1F920F9237
:100840000FB60F9211242F933F938F939F93AF93E3
:10085000BF9380912A0290912B02A0912C02B0911B
:100860002D023091290223E0230F2D3758F50196F0
:10087000A11DB11D2093290280932A0290932B027F
:10088000A0932C02B0932D02809125029091260214
:10089000A0912702B09128020196A11DB11D80935D
:1008A000250290932602A0932702B0932802BF91BD
:1008B000AF919F918F913F912F910F900FBE0F900D
:1008C0001F90189526E8230F0296A11DB11DD2CFC7
:1008D0001F920F920FB60F9211242F933F934F93B5
:1008E0005F936F937F938F939F93AF93BF93EF9398
:1008F000FF938EE292E00E946402FF91EF91BF911C
:10090000AF919F918F917F916F915F914F913F91A7
:100910002F910F900FBE0F901F9018951F920F925E
:100920000FB60F9211242F938F939F93EF93FF9302
:10093000E0913E02F0913F028081E0914402F0910B
:10094000450282FD1BC09081809147028F5F8F73AB
:1009500020914802821741F0E0914702F0E0E25D09
:10096000FD4F958F80934702FF91EF919F918F915B
:100970002F910F900FBE0F901F9018958081F4CF8C
:10098000109231021092300288EE93E0A0E0B0E0C5
:100990008093320290933302A0933402B0933502D5
:1009A00088E291E090932F0280932E0285EC90E0F4
:1009B00090933B0280933A0284EC90E090933D0246
:1009C00080933C0280EC90E090933F0280933E0243
:1009D00081EC90E0909341028093400282EC90E0A1
:1009E000909343028093420286EC90E090934502FC
:1009F00080934402109247021092480210924902DA
:100A000010924A021092CD021092D1021092D0029E
:100A10001092D2028AE391E09093CC028093CB02B1
:100A2000E7EEF2E01082148213821582369683E09C
:100A3000E332F807B9F784E091E090932E038093B6
:100A40002D0381E091E09093300380932F0384E0A5
:100A50008093310383E08093320388E091E09093A8
:100A60002C0380932B038AE090E0909334038093CF
:100A7000330384EF91E09093360380933503109213
:100A80003903109238031092270310922803109212
:100A9000290310922A03109237030895789484B59D
:100AA000826084BD84B5816084BD85B5826085BD6A
:100AB00085B5816085BD80916E00816080936E00F8
:100AC00010928100809181008260809381008091EA
:100AD000810081608093810080918000816080939B
:100AE00080008091B10084608093B1008091B0005B
:100AF00081608093B00080917A00846080937A0056
:100B000080917A00826080937A0080917A0081607F
:100B100080937A0080917A00806880937A001092A6
:100B2000C100E0913E02F0913F0282E08083E091BB
:100B30003A02F0913B021082E0913C02F0913D02BA
:100B40008FEC808310924602E0914202F0914302C2
:100B500086E08083E0914002F091410280818061D3
:100B60008083E0914002F09141028081886080831F
:100B7000E0914002F0914102808180688083E091A1
:100B80004002F091410280818F7D8083CCE1D1E0F1
:100B900004E111E08881229661E00E949F01F80142
:100BA00080810E5F1F4F61E00E949F01F1E0C4321F
:100BB000DF0781F761E08EE00E949F0161E08FE036
:100BC0000E949F0161E08DE00E949F0160E08EE045
:100BD0000E94710160E08FE00E94710160E08DE091
:100BE0000E94710155245394812C912C54018394BB
:100BF00046E0242E50E0652E50E0752E50923703CB
:100C00008FB7F89440912A0250912B0260912C02E8
:100C100070912D028FBF8091270390912803A0919E
:100C20002903B0912A03481B590B6A0B7B0B809157
:100C3000330390913403B0E0A0E084179507A60732
:100C4000B70708F019C1C0E080913103C81760F4FC
:100C5000E0912D03F0912E03EC0FF11D62E08081F5
:100C60000E949F01CF5FF0CF412C80913203481644
:100C700008F05FC0042D10E0E0912F03F0913003E5
:100C8000E00FF11F61E080810E949F01E0912F033E
:100C9000F0913003E00FF11F60E080810E9471014C
:100CA000D501C401042C04C0880F991FAA1FBB1FC3
:100CB0000A94D2F76C017C01E094F094312C80917D
:100CC00031033816F8F4C32DD0E0E0912D03F091F4
:100CD0002E03EC0FFD1F80810E9448012496CC0F4B
:100CE000DD1FC553DD4F892B41F4888199818C2903
:100CF0009D29998388833394E2CF888199818E21BD
:100D00009F21F7CFE0912F03F0913003E00FF11F07
:100D100061E080810E94710180912F0390913003E6
:100D2000080F191F60E0F80180810E949F01439421
:100D30009CCFCBECD2E08E01F801878D90A1892B5E
:100D400031F4148E8FEF9FEF968F858F11A20A5F7B
:100D50001F4F93E00730190779F7D12C80913103A9
:100D6000D81608F052C0C12CED2CF12CEE0CFF1C53
:100D7000F701ED52FD4F7F0120913203C21608F0BA
:100D800042C0F701608171810C2C02C07695679595
:100D90000A94E2F7D29E900111242C0D311DEBEC48
:100DA000F2E080E0458D568D2417350709F4D3C055
:100DB0008F5F36968A30B1F760FF23C0EBECF2E02C
:100DC00090E080E0448D411117C0E0912B03F09139
:100DD0002C03E20FF31F4081289EF001299EF00DA5
:100DE0001124E553FD4F448F368F258F10A2178EA7
:100DF00061E00E94AF0005C0019636968A309105E9
:100E000009F7C394B9CFD394A9CF80E099A19111E8
:100E1000892F26960C171D07C9F79FB7F8944091A4
:100E20002A0250912B0260912C0270912D029FBFDB
:100E300040932703509328036093290370932A0358
:100E40008823D1F08091EC028823B1F08091EA02EE
:100E50009091EB02019781F4C091E702C1110FC09C
:100E60006114710409F4CACE0E945002882309F467
:100E7000C5CE0E940000C2CE10923703F1CFCA3215
:100E800031F5109223021092220210922002109249
:100E90001F021092210210921E0260E08EE00E945A
:100EA000710160E08FE00E9471016CE171E090E0FF
:100EB00080E00E94F30264E171E090E080E00E9433
:100EC000F302509200018AE20E94B603C9CFC332F6
:100ED00051F4609124026525609324028DE00E9404
:100EE000710183E2F1CF80ED8C0F8A3008F0B8CF2A
:100EF0008C2F0C2E000C990BC097D0910001DD2394
:100F0000B9F090932302809322026CE171E00E9479
:100F1000F30280912102811106C061E08EE00E94FF
:100F2000710150922102D525D09300018C2FCCCF96
:100F30009093200280931F0264E171E00E94F3020B
:100F400080911E028111EFCF61E08FE00E9471015C
:100F500050921E02E8CF61704CCFA1E21A2EAA1B5C
:100F6000BB1BFD010DC0AA1FBB1FEE1FFF1FA21759
:100F7000B307E407F50720F0A21BB30BE40BF50B56
:100F8000661F771F881F991F1A9469F760957095DF
:100F9000809590959B01AC01BD01CF010895EE0FA6
:0E0FA000FF1F0590F491E02D0994F894FFCF07
:100FAE00010403020807060531323334353637386B
:100FBE00392A3023130012001100100009000A0014
:100FCE000B000C00000000008602E6011302D302A3
:100FDE0044022202360200000000DB01DF01E301C1
:100FEE000D0A0054454E53206E65787400554E49D7
:100FFE005453206E657874003100300048494748DC
:10100E00004C4F57002D2D2D2D2D2D2D2D2D2D2DF1
:10101E002D2D204445425547202D2D2D2D2D2D2D86
:10102E002D2D2D2D2D2D004B65792050726573734E
:10103E0065643A200074656E735475726E3A2020A2
:10104E0020202020200074656E7356616C75653A01
:10105E0020202020202000756E69747356616C75F7
:10106E00653A20202020200074656E7344697370E9
:10107E006C617965643A202000756E6974734469F9
:10108E0073706C617965643A2000746F67676C6584
:10109E005374617465202823293A20002D2D2D2D9F
:1010AE002D2D2D2D2D2D2D2D2D2D2D2D2D2D2D2D62
:0E10BE002D2D2D2D2D2D2D2D2D2D2D2D2D00DB
:00000001FF
